:0400000007EF00F016
:0A0008002182BEED06F05CEF08F067
:1008000000556C74696D612074656D703A00496EB5
:10081000696369616E646F0054656D703A00487574
:100820006D3A00000BC003F00CC004F0000E066E21
:100830000A0E056E87EC08F00D500324116E0E5061
:100840000420126E1FC015F0166A000E146E430EBF
:10085000136ED4EC08F03ED01FC015F0166A000EDF
:10086000146E430E35D0110E1F24156E166A010E3C
:100870001622000E146E4B0E2BD01F50090DF3CF15
:1008800003F0F4CF04F0000E066E050E056E03ECC7
:1008900007F0EC0E0324156E010E0420166E000EF8
:1008A000146E520E15D01F50090DF3CF03F0F4CF84
:1008B00004F0000E066E050E056E03EC07F0200E28
:1008C0000324156E000E0420166E000E146E460EE4
:1008D000136E15D011C00FF012C010F01050000AA6
:1008E000D8A40DD00F50000AD8B4B6D7010AD8B496
:1008F000BAD70B0AD8B4C1D7010AD8B4D4D7540E8A
:10090000F6EC08F0650EF6EC08F06D0EF6EC08F06B
:10091000700EF6EC08F03A0EF6EC08F0200EF6EC4D
:1009200008F0180E076EA1EC07F015C003F016C012
:1009300004F0000E066E640E056E78EC07F00350AE
:100940000410D8B42AD015C003F016C004F0000E6D
:10095000066E640E056E78EC07F00350300FF6EC6F
:1009600008F015C003F016C004F0000E066E640E09
:10097000056E78EC07F00350300FBEEC08F015C0A0
:1009800003F016C004F0000E066E640E056EC8EC8F
:1009900007F003C015F004C016F015C003F016C030
:1009A00004F0000E066E0A0E056E78EC07F0035098
:1009B000300FF6EC08F015C003F016C004F0000E7E
:1009C000066E0A0E056EC8EC07F00350300FF6EC09
:1009D00008F0A70EF6EC08F01350F6EC08F0200E25
:1009E000F6EC08F00A0EF6EC08F0480EF6EC08F00B
:1009F000750EF6EC08F06D0EF6EC08F03A0EF6EC1B
:100A000008F0200EF6EC08F00A0E036E1E500AECF9
:100A100008F0300FF6EC08F00A0E036E1E5072EC70
:100A200008F0300FF6EC08F0200EF6EC08F0250E7A
:100A3000F6EC08F00A0EF6EC08F0200EF6EC08F0E2
:100A400015C003F016C004F0000E066E0A0E056E07
:100A500078EC07F00350300FBEEC08F015C003F03F
:100A600016C004F0000E066E0A0E056EC8EC07F004
:100A70000350300FBEEC08F01350BEEC08F0C00E6F
:100A8000C9EC08F01E0E076EA1EC07F00A0E036E0B
:100A90001E500AEC08F0300FBEEC08F00A0E036E90
:100AA0001E5072EC08F0300FBEEC08F0250EBEECC4
:100AB00008F01200700ED36E030E176E980EE82E1B
:100AC000FED7172EFCD78B94240EAC6E900EAB6E17
:100AD000000EB86E0C0EAF6E010EC26E0D0EC16E22
:100AE000880EC06E030ED56EF2940B0ED76EDC0E20
:100AF000D66EF28AF28ED58E000E936E000E956E33
:100B000096909694010E926E6D966F86F60E946E88
:100B1000F19E8B94000E046E000E036EE8EC08F05C
:100B20001D6EE9EC07F0D4EC08F01D28D8B428D0ED
:100B3000010E076EA1EC07F0C00EC9EC08F00A0E1A
:100B4000036E1D500AEC08F0300FBEEC08F00A0EE0
:100B5000036E1D5072EC08F0300FBEEC08F0430E2F
:100B6000BEEC08F0150E186E4B0E176EBE0EE82E7A
:100B7000FED7172EFCD7182EFAD700D0D4EC08F0E9
:100B80000E0E076EA1EC07F0060E186E130E176E10
:100B9000AE0EE82EFED7172EFCD7182EFAD72E0E43
:100BA000BEEC08F0060E186E130E176EAE0EE82E91
:100BB000FED7172EFCD7182EFAD72E0EBEEC08F053
:100BC000060E186E130E176EAE0EE82EFED7172EF9
:100BD000FCD7182EFAD72E0EBEEC08F0060E186EB3
:100BE000130E176EAE0EE82EFED7172EFCD7182E5A
:100BF000FAD7D4EC08F0060E186E130E176EAE0E70
:100C0000E82EFED7172EFCD7182EFAD7060E186E30
:100C1000130E176EAE0EE82EFED7172EFCD7182E29
:100C2000FAD727EC08F0000E046E000E036E1FC00A
:100C300005F09AEC08F01FC003F0046A4AEC06F0D5
:100C400082B811D082A002D0010E01D0000E0B6E2E
:100C50000C6A82A202D0010E01D0000E0D6E0E6A47
:100C600012EC04F00AD01BC00BF01CC00CF019C031
:100C70000DF01AC00EF012EC04F0000EDEEC08F0DD
:100C8000000EC35C020EC458D8A002D08180B3D736
:100C90008190B1D7045008E1160E035CD8B004D09F
:100CA000819E819C819A1200045004E1160E035C1F
:100CB000D8A00AD0045008E1190E035CD8B004D0C3
:100CC000818E819C818A1200045004E1190E035C1C
:100CD000D8A00AD0045008E11C0E035CD8B004D0A0
:100CE000819E819C818A1200045004E11C0E035CE9
:100CF000D8A00AD0045008E11F0E035CD8B004D07D
:100D0000819E818C818A1200045004E11F0E035CD5
:100D1000D8A00AD0045008E1220E035CD8B004D059
:100D2000819E818C819A1200045004E1220E035CA2
:100D3000D8A00AD0045008E1250E035CD8B004D036
:100D4000818E818C819A1200045004E1250E035C8F
:100D5000D8A00AD0045008E1280E035CD8B004D013
:100D6000818E819C819A1200045004E1280E035C5C
:100D7000D8A01200818E818C818A12000600F2A414
:100D80000AD0F29482B002D0828001D082900B0E01
:100D9000D76EDC0ED66E9EBA1AD033D0000E1C6E03
:100DA000000E1B6E000E1A6E000E0FD0000E1C6E91
:100DB000000E07D0000E1C6E010EF3D7000E1C6E45
:100DC000010E1B6E000E1A6E010E196E0ED000EC95
:100DD00009F0430AD8B4E2D7050AD8B4EFD70D0A10
:100DE000D8B4E4D7190AD8B4E5D7020E026E040EBF
:100DF000016EBA0EE82EFED7012EFCD7022EFAD7CE
:100E000000D021921100000E086E06AE06D0056CCF
:100E1000061ED8B0062A010E086E04AE06D0036C7A
:100E2000041ED8B0042A010E081A000E0A6E000E25
:100E3000096E05500610D8B41CD0010E076E04D000
:100E4000D89005360636072A06AEFAD7D890093666
:100E50000A360550035C06500458D8A005D005504A
:100E6000035E0650045A0980D89006320532072ED8
:100E7000EDD70850D8B404D0096C0A1ED8B00A2A9D
:100E800009C003F00AC004F01200046E23D0620E01
:100E9000036E660EE82EFED7032EFCD71200070E57
:100EA000036E7D0EE82EFED7032EFCD700F0050E54
:100EB000036E260EE82EFED7032EFCD700D01200BC
:100EC000A60EE82EFED700D01200420EE82EFED766
:100ED00000D012000450010AD8B4D9D7030AD8B4FC
:100EE000DED7010AD8B4ECD7070AD8A41200EDD790
:100EF000000E086E000E076E05500610D8B41CD008
:100F0000010E096E04D0D89005360636092A06AEC1
:100F1000FAD7D890073608360550035C06500458B7
:100F2000D8A005D00550035E0650045A0780D8901B
:100F300006320532092EEDD707C003F008C004F0D1
:100F40001200000E0A6E000E096E07500924086E8A
:100F500008C0F6FF080EF76E0800F5500009D8B477
:100F6000120007500924086E08C0F6FF080EF76E3D
:100F70000800F550BEEC08F0094A0A2A0ABEE5D777
:100F80000A5005E1100E095CD8B01200DED712003D
:100F900005500610D8B418D0010E076E04D0D890B2
:100FA00005360636072A06AEFAD70550035C06500A
:100FB0000458D8A004D00550035E0650045AD890B7
:100FC00006320532072EF1D703C003F004C004F047
:100FD00012008D903F0E8C6EEFEC08F0010E45EC88
:100FE00007F03F0E8C6EEFEC08F0030E45EC07F0B7
:100FF0003F0E8C6EEFEC08F0040E45EC07F0D4ECDD
:1010000008F00F0EFCEC08F0EFEC08F0040E45ECD5
:1010100007F01200046E000E066E0350D8B415D00F
:10102000010E056E03D0D8900336052A03AEFBD718
:10103000D89006360350045CD8A003D00350045E59
:101040000680D8900332052EF3D7065012009494F0
:101050002F0E076EC00EE82EFED7072EFCD7948405
:1010600082B4FED7500EE82EFED782B4FED7ADEC88
:1010700008F01E6EADEC08F0ADEC08F01F6EADECA4
:1010800008F0ADEC08F01200000E036E82A4FED74B
:10109000080EE82EFED700D082A402D0000E036E08
:1010A0000E0EE82EFED700D082A404D0010E036EEF
:1010B00082B4FED703501200080EF66E120EF76EC1
:1010C000000EF86E0900F5CF20F000EE19F0070EC3
:1010D000EE6AE806FDE121902192000EF86E000113
:1010E0005AEF05F0046E080E056E000E066ED890DD
:1010F00004340634066ED89004360350065CD8A03B
:1011000002D00350065E052EF2D70650120003509F
:101110000502F3CF07F0F4CF08F003500602F350B6
:10112000082604500502F350082607C003F008C043
:1011300004F0120003C0A9FF05C0A8FFA69EA69C4C
:10114000A684F29E550EA76EAA0EA76EA682F28EF8
:10115000A1A8FED7A198A6941200000E056E080E55
:10116000066E44EC08F0046E055005240410056E6C
:1011700006060650D8A4F5D705501200066E8D80DD
:101180000650FCEC08F0EFEC08F0040E45EC07F01C
:101190001200066E8D900650FCEC08F0EFEC08F0A3
:1011A000040E45EC07F012008D90010EFCEC08F0E7
:1011B000EFEC08F0020E45EC07F01200036E03445A
:1011C000E846FC0B0109C26EC282C2A21200FDD722
:1011D00003C0A9FFA69EA69CA680A85012008D84DD
:1011E000420EE82EFED700D08D941200036EACA202
:1011F000FED703C0ADFF1200056E05C08CFF1200C4
:091200009EAAFED7AE50120008B0
:020000040020DA
:08000000FFFFFFFFFFFFFFFF00
:020000040030CA
:0E00000000091F1EFF8185FF0FC00FE00F409B
:00000001FF
