:0400000007EF00F016
:0A0008002182B9ED06F04DEF08F07B
:1008000000556C74696D612074656D703A00496EB5
:10081000696369616E646F0054656D703A00487574
:100820006D3A00000BC003F00CC004F0000E066E21
:100830000A0E056E8CEC08F00D500324116E0E505C
:100840000420126E1FC015F0166A000E146E430EBF
:10085000136ED9EC08F03ED01FC015F0166A000EDA
:10086000146E430E35D0110E1F24156E166A010E3C
:100870001622000E146E4B0E2BD01F50090DF3CF15
:1008800003F0F4CF04F0000E066E050E056EFEECCC
:1008900006F0EC0E0324156E010E0420166E000EF9
:1008A000146E520E15D01F50090DF3CF03F0F4CF84
:1008B00004F0000E066E050E056EFEEC06F0200E2E
:1008C0000324156E000E0420166E000E146E460EE4
:1008D000136E15D011C00FF012C010F01050000AA6
:1008E000D8A40DD00F50000AD8B4B6D7010AD8B496
:1008F000BAD70B0AD8B4C1D7010AD8B4D4D7540E8A
:10090000FBEC08F0650EFBEC08F06D0EFBEC08F05C
:10091000700EFBEC08F03A0EFBEC08F0200EFBEC3E
:1009200008F0180E076EFBEC07F015C003F016C0B8
:1009300004F0000E066E640E056E73EC07F00350B3
:100940000410D8B42AD015C003F016C004F0000E6D
:10095000066E640E056E73EC07F00350300FFBEC6F
:1009600008F015C003F016C004F0000E066E640E09
:10097000056E73EC07F00350300FC3EC08F015C0A0
:1009800003F016C004F0000E066E640E056E9CECBB
:1009900007F003C015F004C016F015C003F016C030
:1009A00004F0000E066E0A0E056E73EC07F003509D
:1009B000300FFBEC08F015C003F016C004F0000E79
:1009C000066E0A0E056E9CEC07F00350300FFBEC30
:1009D00008F0A70EFBEC08F01350FBEC08F0200E1B
:1009E000FBEC08F00A0EFBEC08F0480EFBEC08F0FC
:1009F000750EFBEC08F06D0EFBEC08F03A0EFBEC0C
:100A000008F0200EFBEC08F00A0E036E1E50DEEC20
:100A100007F0300FFBEC08F00A0E036E1E5063EC7B
:100A200008F0300FFBEC08F0200EFBEC08F0250E70
:100A3000FBEC08F00A0EFBEC08F0200EFBEC08F0D3
:100A400015C003F016C004F0000E066E0A0E056E07
:100A500073EC07F00350300FC3EC08F015C003F03F
:100A600016C004F0000E066E0A0E056E9CEC07F030
:100A70000350300FC3EC08F01350C3EC08F0C00E65
:100A8000CEEC08F01E0E076EFBEC07F00A0E036EAC
:100A90001E50DEEC07F0300FC3EC08F00A0E036EB8
:100AA0001E5063EC08F0300FC3EC08F0250EC3ECC9
:100AB00008F01200700ED36E030E176E980EE82E1B
:100AC000FED7172EFCD78B94200EAC6E900EAB6E1B
:100AD000000EB86E0C0EAF6E010EC26E0D0EC16E22
:100AE000880EC06E000E936E000E956E010E926E13
:100AF000D70E946EF19E000E046E000E036EEDECA8
:100B000008F01D6EBDEC07F0030ED56EF2940B0ECF
:100B1000D76EDC0ED66EF28AF28ED58ED9EC08F046
:100B20001D28D8B428D0010E076EFBEC07F0C00ECC
:100B3000CEEC08F00A0E036E1D50DEEC07F0300F0D
:100B4000C3EC08F00A0E036E1D5063EC08F0300F82
:100B5000C3EC08F0430EC3EC08F0150E186E4B0EF4
:100B6000176EBE0EE82EFED7172EFCD7182EFAD71A
:100B700000D0D9EC08F00E0E076EFBEC07F0060E65
:100B8000186E130E176EAE0EE82EFED7172EFCD77A
:100B9000182EFAD72E0EC3EC08F0060E186E130EA0
:100BA000176EAE0EE82EFED7172EFCD7182EFAD7EA
:100BB0002E0EC3EC08F0060E186E130E176EAE0E56
:100BC000E82EFED7172EFCD7182EFAD72E0EC3EC20
:100BD00008F0060E186E130E176EAE0EE82EFED736
:100BE000172EFCD7182EFAD7D9EC08F0060E186E7F
:100BF000130E176EAE0EE82EFED7172EFCD7182E4A
:100C0000FAD7060E186E130E176EAE0EE82EFED72C
:100C1000172EFCD7182EFAD718EC08F0000E046E29
:100C2000000E036E1FC005F09FEC08F01FC003F01C
:100C3000046A45EC06F082B811D082A002D0010E01
:100C400001D0000E0B6E0C6A82A202D0010E01D000
:100C5000000E0D6E0E6A12EC04F00AD01BC00BF0F1
:100C60001CC00CF019C00DF01AC00EF012EC04F00C
:100C7000000EE3EC08F0000EC35C020EC458D8A0CE
:100C800002D08386B3D78396B1D7045008E1160EFD
:100C9000035CD8B004D083908392839412000450F4
:100CA00004E1160E035CD8A00AD0045008E1190E26
:100CB000035CD8B004D083808392838412000450F4
:100CC00004E1190E035CD8A00AD0045008E11C0E00
:100CD000035CD8B004D083908392838412000450C4
:100CE00004E11C0E035CD8A00AD0045008E11F0EDA
:100CF000035CD8B004D083908382838412000450B4
:100D000004E11F0E035CD8A00AD0045008E1220EB3
:100D1000035CD8B004D08390838283941200045083
:100D200004E1220E035CD8A00AD0045008E1250E8D
:100D3000035CD8B004D08380838283941200045073
:100D400004E1250E035CD8A00AD0045008E1280E67
:100D5000035CD8B004D08380839283941200045043
:100D600004E1280E035CD8A0120083808382838470
:100D700012000600F2A40AD0F29483B802D083884D
:100D800001D083980B0ED76EDC0ED66E9EBA1AD0A9
:100D900033D0000E1C6E000E1B6E000E1A6E000E7D
:100DA0000FD0000E1C6E000E07D0000E1C6E010E40
:100DB000F3D7000E1C6E010E1B6E000E1A6E010E94
:100DC000196E0ED005EC09F0430AD8B4E2D7050A33
:100DD000D8B4EFD70D0AD8B4E4D7190AD8B4E5D7F8
:100DE000020E026E040E016EBA0EE82EFED7012E20
:100DF000FCD7022EFAD700D021921100000E086E07
:100E000006AE06D0056C061ED8B0062A010E086E86
:100E100004AE06D0036C041ED8B0042A010E081AD2
:100E2000000E0A6E000E096E05500610D8B41CD0D4
:100E3000010E076E04D0D89005360636072A06AE96
:100E4000FAD7D89009360A360550035C0650045884
:100E5000D8A005D00550035E0650045A0980D890EA
:100E600006320532072EEDD70850D8B404D0096CED
:100E70000A1ED8B00A2A09C003F00AC004F0120002
:100E8000046E23D0620E036E660EE82EFED7032E8C
:100E9000FCD71200070E036E7D0EE82EFED7032E40
:100EA000FCD700F0050E036E260EE82EFED7032EAB
:100EB000FCD700D01200A60EE82EFED700D01200FC
:100EC000420EE82EFED700D012000450010AD8B41A
:100ED000D9D7030AD8B4DED7010AD8B4ECD7070AA9
:100EE000D8A41200EDD7000E086E000E076E055054
:100EF0000610D8B41CD0010E096E04D0D890053667
:100F00000636092A06AEFAD7D890073608360550B5
:100F1000035C06500458D8A005D00550035E065067
:100F2000045A0780D89006320532092EEDD707C043
:100F300003F008C004F0120005500610D8B418D011
:100F4000010E076E04D0D89005360636072A06AE85
:100F5000FAD70550035C06500458D8A004D00550B9
:100F6000035E0650045AD89006320532072EF1D798
:100F700003C003F004C004F012008C9C3F0E8A6E84
:100F8000F4EC08F0010E40EC07F03F0E8A6EF4EC32
:100F900008F0030E40EC07F03F0E8A6EF4EC08F008
:100FA000040E40EC07F0D9EC08F00F0E01EC09F04C
:100FB000F4EC08F0040E40EC07F01200046E000E92
:100FC000066E0350D8B415D0010E056E03D0D8902C
:100FD0000336052A03AEFBD7D89006360350045CCF
:100FE000D8A003D00350045E0680D8900332052EAB
:100FF000F3D706501200000E0A6E000E096E0DD0D7
:1010000007500924086E08C0F6FF080EF76E0800A6
:10101000F550C3EC08F0094A0A2A07C003F078EC3F
:1010200008F00350095C04500A58D8B01200E8D701
:1010300094942F0E076EC00EE82EFED7072EFCD715
:10104000948482B4FED7500EE82EFED782B4FED729
:10105000B2EC08F01E6EB2EC08F0B2EC08F01F6EB5
:10106000B2EC08F0B2EC08F01200000E036E82A49D
:10107000FED7080EE82EFED700D082A402D0000EC4
:10108000036E0E0EE82EFED700D082A404D0010E0F
:10109000036E82B4FED703501200120EF66E120ECB
:1010A000F76E000EF86E0900F5CF20F000EE19F093
:1010B000070EEE6AE806FDE121902192000EF86E1F
:1010C00000015AEF05F0046E080E056E000E066E64
:1010D000D89004340634066ED89004360350065C6B
:1010E000D8A002D00350065E052EF2D7065012009B
:1010F00003C005F001D0052A05C0F6FF080EF76E03
:101100000800F5500009D8A4F6D70350055C036E1B
:10111000046A03BE0406120003500502F3CF07F071
:10112000F4CF08F003500602F350082604500502DD
:10113000F350082607C003F008C004F0120003C0F3
:10114000A9FF05C0A8FFA69EA69CA684F29E550EE8
:10115000A76EAA0EA76EA682F28EA1A8FED7A198AE
:10116000A6941200000E056E080E066E35EC08F00F
:10117000046E055005240410056E06060650D8A41A
:10118000F5D705501200066E8C8C065001EC09F064
:10119000F4EC08F0040E40EC07F01200066E8C9C94
:1011A000065001EC09F0F4EC08F0040E40EC07F0F6
:1011B00012008C9C010E01EC09F0F4EC08F0020E18
:1011C00040EC07F01200036E0344E846FC0B0109F3
:1011D000C26EC282C2A21200FDD703C0A9FFA69EA2
:1011E000A69CA680A85012008C8E420EE82EFED738
:1011F00000D08C9E1200036EACA2FED703C0ADFFE0
:101200001200056E05C08AFF12009EAAFED7AE50DE
:03121000120008C1
:020000040020DA
:08000000FFFFFFFFFFFFFFFF00
:020000040030CA
:0E00000000091F1EFF8185FF0FC00FE00F409B
:00000001FF
