:0400000007EF00F016
:0A000800218284ED06F018EF08F0E5
:1008000000556C74696D612074656D703A00496EB5
:10081000696369616E646F0054656D703A00487574
:100820006D3A00000BC003F00CC004F0000E066E21
:100830000A0E056E57EC08F00D500324116E0E5091
:100840000420126E1FC015F0166A000E146E430EBF
:10085000136EA4EC08F03ED01FC015F0166A000E0F
:10086000146E430E35D0110E1F24156E166A010E3C
:100870001622000E146E4B0E2BD01F50090DF3CF15
:1008800003F0F4CF04F0000E066E050E056EC9EC01
:1008900006F0EC0E0324156E010E0420166E000EF9
:1008A000146E520E15D01F50090DF3CF03F0F4CF84
:1008B00004F0000E066E050E056EC9EC06F0200E63
:1008C0000324156E000E0420166E000E146E460EE4
:1008D000136E15D011C00FF012C010F01050000AA6
:1008E000D8A40DD00F50000AD8B4B6D7010AD8B496
:1008F000BAD70B0AD8B4C1D7010AD8B4D4D7540E8A
:10090000C6EC08F0650EC6EC08F06D0EC6EC08F0FB
:10091000700EC6EC08F03A0EC6EC08F0200EC6ECDD
:1009200008F0180E076EC6EC07F015C003F016C0ED
:1009300004F0000E066E640E056E3EEC07F00350E8
:100940000410D8B42AD015C003F016C004F0000E6D
:10095000066E640E056E3EEC07F00350300FC6ECD9
:1009600008F015C003F016C004F0000E066E640E09
:10097000056E3EEC07F00350300F8EEC08F015C00A
:1009800003F016C004F0000E066E640E056E67ECF0
:1009900007F003C015F004C016F015C003F016C030
:1009A00004F0000E066E0A0E056E3EEC07F00350D2
:1009B000300FC6EC08F015C003F016C004F0000EAE
:1009C000066E0A0E056E67EC07F00350300FC6EC9A
:1009D00008F0A70EC6EC08F01350C6EC08F0200E85
:1009E000C6EC08F00A0EC6EC08F0480EC6EC08F09B
:1009F000750EC6EC08F06D0EC6EC08F03A0EC6ECAB
:100A000008F0200EC6EC08F00A0E036E1E50A9EC8A
:100A100007F0300FC6EC08F00A0E036E1E502EECE5
:100A200008F0300FC6EC08F0200EC6EC08F0250EDA
:100A3000C6EC08F00A0EC6EC08F0200EC6EC08F072
:100A400015C003F016C004F0000E066E0A0E056E07
:100A50003EEC07F00350300F8EEC08F015C003F0A9
:100A600016C004F0000E066E0A0E056E67EC07F065
:100A70000350300F8EEC08F013508EEC08F0C00ECF
:100A800099EC08F01E0E076EC6EC07F00A0E036E16
:100A90001E50A9EC07F0300F8EEC08F00A0E036E22
:100AA0001E502EEC08F0300F8EEC08F0250E8EEC68
:100AB00008F01200760ED36E030E176E980EE82E15
:100AC000FED7172EFCD78B94200EAC6E900EAB6E1B
:100AD000000EB86E000E966E0C0EAF6E010EC26E5A
:100AE0000D0EC16E880EC06E000E936E000E956ED8
:100AF000010E926ED70E946E6D966F86000E046E88
:100B0000000E036EB8EC08F01D6E88EC07F0030EC3
:100B1000D56EF2940B0ED76EDC0ED66EF28AF28E84
:100B2000D58EA4EC08F01D28D8B428D0010E076E8D
:100B3000C6EC07F0C00E99EC08F00A0E036E1D50CB
:100B4000A9EC07F0300F8EEC08F00A0E036E1D5072
:100B50002EEC08F0300F8EEC08F0430E8EEC08F00F
:100B6000150E186E4B0E176EBE0EE82EFED7172E02
:100B7000FCD7182EFAD700D0A4EC08F00E0E076EA2
:100B8000C6EC07F0060E186E130E176EAE0EE82EAA
:100B9000FED7172EFCD7182EFAD7A4EC08F0060EB5
:100BA000186E130E176EAE0EE82EFED7172EFCD75A
:100BB000182EFAD7060E186E130E176EAE0EE82E0C
:100BC000FED7172EFCD7182EFAD7E3EC07F0000E4D
:100BD000046E000E036E1FC005F06AEC08F01FC023
:100BE00003F0046A1EEC06F082B811D082A002D095
:100BF000010E01D0000E0B6E0C6A82A202D0010E13
:100C000001D0000E0D6E0E6A12EC04F00AD01BC06B
:100C10000BF01CC00CF019C00DF01AC00EF012EC55
:100C200004F0000EAEEC08F0000EC35C020EC458D7
:100C3000D8A002D08386BED78396BCD7045007E1E4
:100C4000160E035CD8B003D0000E8A6E120004505A
:100C500004E1160E035CD8A009D0045007E1190E78
:100C6000035CD8B003D0050E8A6E1200045004E174
:100C7000190E035CD8A009D0045007E11C0E035CD8
:100C8000D8B003D0040E8A6E1200045004E11C0E8A
:100C9000035CD8A009D0045007E11F0E035CD8B054
:100CA00003D0060E8A6E1200045004E11F0E035C8E
:100CB000D8A009D0045007E1220E035CD8B003D0BD
:100CC000020E8A6E1200045004E1220E035CD8A0CA
:100CD00006D0045004E1250E035CD8A0E2D70450EE
:100CE00004E1250E035CD8A006D0045004E1280ED0
:100CF000035CD8A0C7D7045004E1280E035CD8A039
:100D00001200070E8A6E12000600F2A40AD0F294B6
:100D100084B002D0848001D084900B0ED76EDC0E9C
:100D2000D66E9EBA1AD033D0000E1C6E000E1B6E0B
:100D3000000E1A6E000E0FD0000E1C6E000E07D0B3
:100D4000000E1C6E010EF3D7000E1C6E010E1B6E02
:100D5000000E1A6E010E196E0ED0D0EC08F0430A88
:100D6000D8B4E2D7050AD8B4EFD70D0AD8B4E4D77F
:100D7000190AD8B4E5D7020E026E040E016EBA0E3F
:100D8000E82EFED7012EFCD7022EFAD700D02192F2
:100D90001100000E086E06AE06D0056C061ED8B017
:100DA000062A010E086E04AE06D0036C041ED8B0ED
:100DB000042A010E081A000E0A6E000E096E055074
:100DC0000610D8B41CD0010E076E04D0D89005369A
:100DD0000636072A06AEFAD7D89009360A360550E5
:100DE000035C06500458D8A005D00550035E065099
:100DF000045A0980D89006320532072EEDD70850E4
:100E0000D8B404D0096C0A1ED8B00A2A09C003F06D
:100E10000AC004F01200046E23D0620E036E660E48
:100E2000E82EFED7032EFCD71200070E036E7D0EB0
:100E3000E82EFED7032EFCD700F0050E036E260E1B
:100E4000E82EFED7032EFCD700D01200A60EE82E07
:100E5000FED700D01200420EE82EFED700D01200BE
:100E60000450010AD8B4D9D7030AD8B4DED7010A8E
:100E7000D8B4ECD7070AD8A41200EDD7000E086E3C
:100E8000000E076E05500610D8B41CD0010E096E76
:100E900004D0D89005360636092A06AEFAD7D8907F
:100EA000073608360550035C06500458D8A005D014
:100EB0000550035E0650045A0780D890063205326A
:100EC000092EEDD707C003F008C004F0120005504A
:100ED0000610D8B418D0010E076E04D0D89005368D
:100EE0000636072A06AEFAD70550035C06500458AA
:100EF000D8A004D00550035E0650045AD89006329C
:100F00000532072EF1D703C003F004C004F012002D
:100F10008D923F0E8C6EBFEC08F0010E0BEC07F0CB
:100F20003F0E8C6EBFEC08F0030E0BEC07F03F0E8B
:100F30008C6EBFEC08F0040E0BEC07F0A4EC08F08C
:100F40000F0ECCEC08F0BFEC08F0040E0BEC07F031
:100F50001200046E000E066E0350D8B415D0010EB8
:100F6000056E03D0D8900336052A03AEFBD7D89080
:100F700006360350045CD8A003D00350045E0680FC
:100F8000D8900332052EF3D706501200000E0A6ED9
:100F9000000E096E0DD007500924086E08C0F6FF38
:100FA000080EF76E0800F5508EEC08F0094A0A2A80
:100FB00007C003F043EC08F00350095C04500A58E2
:100FC000D8B01200E8D794942F0E076EC00EE82E0A
:100FD000FED7072EFCD7948482B4FED7500EE82E9D
:100FE000FED782B4FED77DEC08F01E6E7DEC08F0D3
:100FF0007DEC08F01F6E7DEC08F07DEC08F012002F
:10100000000E036E82A4FED7080EE82EFED700D095
:1010100082A402D0000E036E0E0EE82EFED700D082
:1010200082A404D0010E036E82B4FED703501200D6
:10103000A80EF66E110EF76E000EF86E0900F5CFD1
:1010400020F000EE19F0070EEE6AE806FDE12190AF
:101050002192000EF86E00015AEF05F0046E080EA2
:10106000056E000E066ED89004340634066ED890D5
:1010700004360350065CD8A002D00350065E052E4D
:10108000F2D70650120003C005F001D0052A05C0B2
:10109000F6FF080EF76E0800F5500009D8A4F6D741
:1010A0000350055C036E046A03BE0406120003507D
:1010B0000502F3CF07F0F4CF08F003500602F35017
:1010C000082604500502F350082607C003F008C0A4
:1010D00004F0120003C0A9FF05C0A8FFA69EA69CAD
:1010E000A684F29E550EA76EAA0EA76EA682F28E59
:1010F000A1A8FED7A198A6941200000E056E080EB6
:10110000066E00EC08F0046E055005240410056E10
:1011100006060650D8A4F5D705501200066E8D823B
:101120000650CCEC08F0BFEC08F0040E0BEC07F016
:101130001200066E8D920650CCEC08F0BFEC08F061
:10114000040E0BEC07F012008D92010ECCEC08F0AF
:10115000BFEC08F0020E0BEC07F01200036E034424
:10116000E846FC0B0109C26EC282C2A21200FDD782
:1011700003C0A9FFA69EA69CA680A85012008D843D
:10118000420EE82EFED700D08D941200036EACA262
:10119000FED703C0ADFF1200056E05C08CFF120024
:0911A0009EAAFED7AE5012000811
:020000040020DA
:08000000FFFFFFFFFFFFFFFF00
:020000040030CA
:0E00000000091F1EFF8185FF0FC00FE00F409B
:00000001FF
