:0400000007EF00F016
:0A00080023820CED07F0ADEF08F0C5
:1008000000556C74696D612074656D703A00496EB5
:10081000696369616E646F0054656D703A00487574
:100820006D3A00000CC003F00DC004F0000E066E1F
:100830000A0E056ED8EC08F00E500324126E0F500D
:100840000420136E21C016F0176A000E156E430EB9
:10085000146E31EC09F03ED021C016F0176A000E7C
:10086000156E430E35D0110E2124166E176A010E37
:100870001722000E156E4B0E2BD02150090DF3CF11
:1008800003F0F4CF04F0000E066E050E056E51EC79
:1008900007F0EC0E0324166E010E0420176E000EF6
:1008A000156E520E15D02150090DF3CF03F0F4CF81
:1008B00004F0000E066E050E056E51EC07F0200EDA
:1008C0000324166E000E0420176E000E156E460EE1
:1008D000146E15D012C010F013C011F01150000AA0
:1008E000D8A40DD01050000AD8B4B6D7010AD8B495
:1008F000BAD70B0AD8B4C1D7010AD8B4D4D7540E8A
:1009000053EC09F0650E53EC09F06D0E53EC09F051
:10091000700E53EC09F03A0E53EC09F0200E53EC34
:1009200009F0180E086EEFEC07F016C003F017C0C0
:1009300004F0000E066E640E056EC6EC07F0035060
:100940000410D8B42AD016C003F017C004F0000E6B
:10095000066E640E056EC6EC07F00350300F53ECC4
:1009600009F016C003F017C004F0000E066E640E06
:10097000056EC6EC07F00350300F1BEC09F016C0F3
:1009800003F017C004F0000E066E640E056E39EC1D
:1009900008F003C016F004C017F016C003F017C02B
:1009A00004F0000E066E0A0E056EC6EC07F003504A
:1009B000300F53EC09F016C003F017C004F0000E1E
:1009C000066E0A0E056E39EC08F00350300F53EC3A
:1009D00009F0A70E53EC09F0145053EC09F0200E67
:1009E00053EC09F00A0E53EC09F0480E53EC09F0F1
:1009F000750E53EC09F06D0E53EC09F03A0E53EC02
:100A000009F0200E53EC09F00A0E036E205078EC2A
:100A100008F0300F53EC09F00A0E036E2050C3ECBF
:100A200008F0300F53EC09F0200E53EC09F0250EBE
:100A300053EC09F00A0E53EC09F0200E53EC09F0C8
:100A400016C003F017C004F0000E066E0A0E056E05
:100A5000C6EC07F00350300F1BEC09F016C003F092
:100A600017C004F0000E066E0A0E056E39EC08F091
:100A70000350300F1BEC09F014501BEC09F0C00EB2
:100A800026EC09F01E0E086EEFEC07F00A0E036E5E
:100A9000205078EC08F0300F1BEC09F00A0E036EC2
:100AA0002050C3EC08F0300F1BEC09F0250E1BECB6
:100AB00009F01200700ED36E030E186E980EE82E19
:100AC000FED7182EFCD7200EAC6E900EAB6E000E2B
:100AD000B86E0C0EAF6E010EC26E0D0EC16E880E9A
:100AE000C06E000E936E000E956E010E926E6D96A6
:100AF0006F86F60E946EF19E8B94000E046E000EBF
:100B0000036E45EC09F01E6E040E0FEC09F0BEEC0E
:100B100006F0830ED56EF2940B0ED76EDC0ED66EF9
:100B2000F28AF28ED58E31EC09F01E28D8B428D086
:100B3000010E086EEFEC07F0C00E26EC09F00A0E6D
:100B4000036E1E5078EC08F0300F1BEC09F00A0E13
:100B5000036E1E50C3EC08F0300F1BEC09F0430E7F
:100B60001BEC09F0150E196E4B0E186EBE0EE82E1A
:100B7000FED7182EFCD7192EFAD700D031EC09F089
:100B80000E0E086EEFEC07F0060E196E130E186EBF
:100B9000AE0EE82EFED7182EFCD7192EFAD72E0E41
:100BA0001BEC09F0060E196E130E186EAE0EE82E31
:100BB000FED7182EFCD7192EFAD72E0E1BEC09F0F3
:100BC000060E196E130E186EAE0EE82EFED7182EF6
:100BD000FCD7192EFAD72E0E1BEC09F0060E196E53
:100BE000130E186EAE0EE82EFED7182EFCD7192E57
:100BF000FAD731EC09F0060E196E130E186EAE0E10
:100C0000E82EFED7182EFCD7192EFAD7060E196E2D
:100C1000130E186EAE0EE82EFED7182EFCD7192E26
:100C2000FAD75AEC08F0000E046E000E036E21C0D5
:100C300005F0EBEC08F021C003F0046A4AEC06F082
:100C400082B211D082A802D0010E01D0000E0C6E2B
:100C50000D6A82AA02D0010E01D0000E0E6E0F6A3C
:100C600012EC04F00AD01CC00CF01DC00DF01AC02C
:100C70000EF01BC00FF012EC04F0000E3BEC09F07C
:100C8000000EC35C020EC458D8A002D08180B3D736
:100C90008190B1D7045008E1160E035CD8B004D09F
:100CA000819E819C819A1200045004E1160E035C1F
:100CB000D8A00AD0045008E1190E035CD8B004D0C3
:100CC000818E819C818A1200045004E1190E035C1C
:100CD000D8A00AD0045008E11C0E035CD8B004D0A0
:100CE000819E819C818A1200045004E11C0E035CE9
:100CF000D8A00AD0045008E11F0E035CD8B004D07D
:100D0000819E818C818A1200045004E11F0E035CD5
:100D1000D8A00AD0045008E1220E035CD8B004D059
:100D2000819E818C819A1200045004E1220E035CA2
:100D3000D8A00AD0045008E1250E035CD8B004D036
:100D4000818E818C819A1200045004E1250E035C8F
:100D5000D8A00AD0045008E1280E035CD8B004D013
:100D6000818E819C819A1200045004E1280E035C5C
:100D7000D8A01200818E818C818A12008C9C040E76
:100D80002218D8A404D08C500F0B300901D03F0E8C
:100D90008C6E4CEC09F0010E93EC07F0040E221857
:100DA000D8A404D08C500F0B300901D03F0E8C6EAC
:100DB0004CEC09F0030E93EC07F0040E2218D8A4B3
:100DC00004D08C500F0B300901D03F0E8C6E4CECD0
:100DD00009F0040E93EC07F0040E2218D8A411D0E9
:100DE0008C500F0B20098C6E4CEC09F0040E93EC28
:100DF00007F02F0E16EC08F04CEC09F0040E93EC03
:100E000007F031EC09F00F0E16EC08F04CEC09F08D
:100E1000040E93EC07F012000600F2A40AD0F2943C
:100E200082B002D0828001D082900B0ED76EDC0E91
:100E3000D66E9EBA1AD033D0000E1D6E000E1C6EF8
:100E4000000E1B6E000E0FD0000E1D6E000E07D0A0
:100E5000000E1D6E010EF3D7000E1D6E010E1C6EEE
:100E6000000E1B6E010E1A6E0ED059EC09F0430AEB
:100E7000D8B4E2D7050AD8B4EFD70D0AD8B4E4D76E
:100E8000190AD8B4E5D7020E026E040E016EBA0E2E
:100E9000E82EFED7012EFCD7022EFAD700D02392DF
:100EA0001100000E086E06AE06D0056C061ED8B006
:100EB000062A010E086E04AE06D0036C041ED8B0DC
:100EC000042A010E081A000E0A6E000E096E055063
:100ED0000610D8B41CD0010E076E04D0D890053689
:100EE0000636072A06AEFAD7D89009360A360550D4
:100EF000035C06500458D8A005D00550035E065088
:100F0000045A0980D89006320532072EEDD70850D2
:100F1000D8B404D0096C0A1ED8B00A2A09C003F05C
:100F20000AC004F01200046E23D0620E036E660E37
:100F3000E82EFED7032EFCD71200070E036E7D0E9F
:100F4000E82EFED7032EFCD700F0050E036E260E0A
:100F5000E82EFED7032EFCD700D01200A60EE82EF6
:100F6000FED700D01200420EE82EFED700D01200AD
:100F70000450010AD8B4D9D7030AD8B4DED7010A7D
:100F8000D8B4ECD7070AD8A41200EDD7000E086E2B
:100F9000000E076E05500610D8B41CD0010E096E65
:100FA00004D0D89005360636092A06AEFAD7D8906E
:100FB000073608360550035C06500458D8A005D003
:100FC0000550035E0650045A0780D8900632053259
:100FD000092EEDD707C003F008C004F01200000E80
:100FE0000B6E000E0A6E08500A24096E09C0F6FF47
:100FF000080EF76E0800F5500009D8B4120008502A
:101000000A24096E09C0F6FF080EF76E0800F550B5
:101010001BEC09F00A4A0B2A0BBEE5D70B5005E181
:10102000100E0A5CD8B01200DED71200066E040E55
:101030002218D8A417D006C005F0F00E05168C5063
:101040000F0B05108C6E4CEC09F0010E93EC07F0C1
:1010500006C005F0053AF00E05168C500F0B051072
:101060008C6E1200080E2218D8A4120006C08CFF45
:10107000120005500610D8B418D0010E076E04D027
:10108000D89005360636072A06AEFAD70550035C17
:1010900006500458D8A004D00550035E0650045AE8
:1010A000D89006320532072EF1D703C003F004C0F2
:1010B00004F0120094942F0E076EC00EE82EFED797
:1010C000072EFCD7948482B4FED7500EE82EFED7AC
:1010D00082B4FED7FEEC08F0206EFEEC08F0FEECC9
:1010E00008F0216EFEEC08F0FEEC08F01F6E120016
:1010F000046E000E066E0350D8B415D0010E056EB6
:1011000003D0D8900336052A03AEFBD7D890063615
:101110000350045CD8A003D00350045E0680D8902E
:101120000332052EF3D706501200000E036E82A480
:10113000FED7080EE82EFED700D082A402D0000E03
:10114000036E0E0EE82EFED700D082A404D0010E4E
:10115000036E82B4FED703501200BA0EF66E120E62
:10116000F76E000EF86E0900F5CF22F000EE1AF0CF
:10117000080EEE6AE806FDE123902392000EF86E59
:1011800000015AEF05F0046E080E056E000E066EA3
:10119000D89004340634066ED89004360350065CAA
:1011A000D8A002D00350065E052EF2D706501200DA
:1011B00003500502F3CF07F0F4CF08F00350060206
:1011C000F350082604500502F350082607C003F028
:1011D00008C004F0120003C0A9FF05C0A8FFA69E26
:1011E000A69CA684F29E550EA76EAA0EA76EA68296
:1011F000F28EA1A8FED7A198A6941200000E056E4B
:10120000080E066E95EC08F0046E055005240410D7
:10121000056E06060650D8A4F5D705501200036ED9
:10122000040E0318D8B404D0080E0318D8A4120072
:1012300003C022F01200076E8C8C075016EC08F0E9
:101240004CEC09F0040E93EC07F01200076E8C9C36
:10125000075016EC08F04CEC09F0040E93EC07F084
:1012600012008C9C010E16EC08F04CEC09F0020EFA
:1012700093EC07F01200036E0344E846FC0B0109EF
:10128000C26EC282C2A21200FDD703C0A9FFA69EF1
:10129000A69CA680A85012008C8E420EE82EFED787
:1012A00000D08C9E1200036EACA2FED703C0ADFF2F
:0B12B00012009EAAFED7AE50120008EC
:020000040020DA
:08000000FFFFFFFFFFFFFFFF00
:020000040030CA
:0E00000000091F1EFF8185FF0FC00FE00F409B
:00000001FF
