:0400000007EF00F016
:0A0008003C82FBED07F049EF0BF01E
:1008000000556C74696D612074656D703A00496EB5
:10081000696369616E646F0054656D703A00487574
:100820006D3A000027C01EF028C01FF0000E216E98
:100830000A0E206E89EC0BF029501E242D6E2A50D2
:100840001F202E6E3AC031F0326A000E306E430E19
:100850002F6E0BEC0CF03ED03AC031F0326A000E35
:10086000306E430E35D0110E3A24316E326A010ECD
:100870003222000E306E4B0E2BD03A50090DF3CFC2
:100880001EF0F4CF1FF0000E216E050E206EBCECA2
:1008900008F0EC0E1E24316E010E1F20326E000E89
:1008A000306E520E15D03A50090DF3CF1EF0F4CF32
:1008B0001FF0000E216E050E206EBCEC08F0200E1D
:1008C0001E24316E000E1F20326E000E306E460E5A
:1008D0002F6E15D02DC02BF02EC02CF02C50000AFE
:1008E000D8A40DD02B50000AD8B4B6D7010AD8B47A
:1008F000BAD70B0AD8B4C1D7010AD8B4D4D7540E8A
:100900003EEC0CF0650E3EEC0CF06D0E3EEC0CF087
:10091000700E3EEC0CF03A0E3EEC0CF0200E3EEC6D
:100920000CF0180E236E21EC0AF031C01EF032C01C
:100930001FF0000E216E640E206EA6EC09F01E5012
:100940001F10D8B42AD031C01EF032C01FF0000EE4
:10095000216E640E206EA6EC09F01E50300F3EECA6
:100960000CF031C01EF032C01FF0000E216E640E7C
:10097000206EA6EC09F01E50300FDFEC0BF031C0FA
:100980001EF032C01FF0000E216E640E206EB5EC1A
:100990000AF01EC031F01FC032F031C01EF032C06C
:1009A0001FF0000E216E0A0E206EA6EC09F01E50FC
:1009B000300F3EEC0CF031C01EF032C01FF0000EC4
:1009C000216E0A0E206EB5EC0AF01E50300F3EEC80
:1009D0000CF0A70E3EEC0CF02F503EEC0CF0200E6D
:1009E0003EEC0CF00A0E3EEC0CF0480E3EEC0CF027
:1009F000750E3EEC0CF06D0E3EEC0CF03A0E3EEC3B
:100A00000CF0200E3EEC0CF00A0E1E6E3950F7EC86
:100A10000AF0300F3EEC0CF00A0E1E6E39505FECFF
:100A20000BF0300F3EEC0CF0200E3EEC0CF0250EDF
:100A30003EEC0CF00A0E3EEC0CF0200E3EEC0CF0FE
:100A400031C01EF032C01FF0000E216E0A0E206E63
:100A5000A6EC09F01E50300FDFEC0BF031C01EF099
:100A600032C01FF0000E216E0A0E206EB5EC0AF0A7
:100A70001E50300FDFEC0BF02F50DFEC0BF0C00EF0
:100A8000EAEC0BF01E0E236E21EC0AF00A0E1E6E2D
:100A90003950F7EC0AF0300FDFEC0BF00A0E1E6E47
:100AA00039505FEC0BF0300FDFEC0BF0250EDFEC74
:100AB0000BF012000AC001F00BC002F0000E046E31
:100AC0000A0E036EAFEC0BF00C500124106E0D50AB
:100AD0000220116E3AC014F0156A000E136E430E18
:100AE000126E1FEC0CF03ED03AC014F0156A000EE6
:100AF000136E430E35D0110E3A24146E156A010E92
:100B00001522000E136E4B0E2BD03A50090DF3CF69
:100B100001F0F4CF02F0000E046E050E036EFEEC41
:100B200008F0EC0E0124146E010E0220156E000E6A
:100B3000136E520E15D03A50090DF3CF01F0F4CFD9
:100B400002F0000E046E050E036EFEEC08F0200E9F
:100B50000124146E000E0220156E000E136E460E58
:100B6000126E15D010C00EF011C00FF00F50000A19
:100B7000D8A40DD00E50000AD8B4B6D7010AD8B404
:100B8000BAD70B0AD8B4C1D7010AD8B4D4D7540EF7
:100B900044EC0CF0650E44EC0CF06D0E44EC0CF0E3
:100BA000700E44EC0CF03A0E44EC0CF0200E44ECC9
:100BB0000CF0180E066E48EC0AF014C001F015C0D7
:100BC00002F0000E046E640E036EF8EC09F00150A2
:100BD0000210D8B42AD014C001F015C002F0000EE3
:100BE000046E640E036EF8EC09F00150300F44EC13
:100BF0000CF014C001F015C002F0000E046E640E7B
:100C0000036EF8EC09F00150300FF5EC0BF014C056
:100C100001F015C002F0000E046E640E036ED6ECF7
:100C20000AF001C014F002C015F014C001F015C0A4
:100C300002F0000E046E0A0E036EF8EC09F001508B
:100C4000300F44EC0CF014C001F015C002F0000E9F
:100C5000046E0A0E036ED6EC0AF00150300F44EC1D
:100C60000CF0A70E44EC0CF0125044EC0CF0200EEB
:100C700044EC0CF00A0E44EC0CF0480E44EC0CF082
:100C8000750E44EC0CF06D0E44EC0CF03A0E44EC96
:100C90000CF0200E44EC0CF00A0E016E395014ECEE
:100CA0000BF0300F44EC0CF00A0E016E395074EC6E
:100CB0000BF0300F44EC0CF0200E44EC0CF0250E41
:100CC00044EC0CF00A0E44EC0CF0200E44EC0CF05A
:100CD00014C001F015C002F0000E046E0A0E036E7F
:100CE000F8EC09F00150300FF5EC0BF014C001F0F6
:100CF00015C002F0000E046E0A0E036ED6EC0AF068
:100D00000150300FF5EC0BF01250F5EC0BF0C00E6B
:100D100000EC0CF01E0E066E48EC0AF00A0E016E96
:100D2000395014EC0BF0300FF5EC0BF00A0E016E9D
:100D3000395074EC0BF0300FF5EC0BF0250EF5ECA0
:100D40000BF01200700ED36E030E336E980EE82E69
:100D5000FED7332EFCD78B94200EAC6E900EAB6E6C
:100D6000000EB86E0C0EAF6E010EC26E0D0EC16E8F
:100D7000880EC06E000E936E000E956E010E926E80
:100D8000C70E946EF19E000E1F6E000E1E6E29ECB3
:100D90000CF0376E6EEC08F0040ED3EC0BF0830E03
:100DA000D56EF2940B0ED76EDC0ED66EF28AF28EF2
:100DB000D58E0BEC0CF03728D8B428D0010E236E5A
:100DC00021EC0AF0C00EEAEC0BF00A0E1E6E375052
:100DD000F7EC0AF0300FDFEC0BF00A0E1E6E375006
:100DE0005FEC0BF0300FDFEC0BF0430EDFEC0BF0A1
:100DF000150E346E4B0E336EBE0EE82EFED7332E1C
:100E0000FCD7342EFAD700D00BEC0CF00E0E236E6C
:100E100021EC0AF0060E346E130E336EAE0EE82E81
:100E2000FED7332EFCD7342EFAD72E0EDFEC0BF084
:100E3000060E346E130E336EAE0EE82EFED7332E32
:100E4000FCD7342EFAD72E0EDFEC0BF0060E346EE4
:100E5000130E336EAE0EE82EFED7332EFCD7342E93
:100E6000FAD72E0EDFEC0BF0060E346E130E336E37
:100E7000AE0EE82EFED7332EFCD7342EFAD70BEC6D
:100E80000CF0060E346E130E336EAE0EE82EFED747
:100E9000332EFCD7342EFAD7060E346E130E336E73
:100EA000AE0EE82EFED7332EFCD7342EFAD7CFEC79
:100EB00009F0000E366E010E356E000E1F6E000E2C
:100EC0001E6E3AC020F09CEC0BF03AC01EF01F6A78
:100ED00087EC07F082A002D0010E01D0000E276E31
:100EE000286A82A202D0010E01D0000E296E2A6A61
:100EF00012EC04F0000E15EC0CF0000EC35C020EB8
:100F0000C458D8A002D08386BCD78396BAD71F50C6
:100F100008E1160E1E5CD8B004D0839083928394AF
:100F200012001F5004E1160E1E5CD8A00AD01F50FC
:100F300008E1190E1E5CD8B004D0838083928384AC
:100F400012001F5004E1190E1E5CD8A00AD01F50D9
:100F500008E11C0E1E5CD8B004D083908392838479
:100F600012001F5004E11C0E1E5CD8A00AD01F50B6
:100F700008E11F0E1E5CD8B004D083908382838466
:100F800012001F5004E11F0E1E5CD8A00AD01F5093
:100F900008E1220E1E5CD8B004D083908382839433
:100FA00012001F5004E1220E1E5CD8A00AD01F5070
:100FB00008E1250E1E5CD8B004D083808382839420
:100FC00012001F5004E1250E1E5CD8A00AD01F504D
:100FD00008E1280E1E5CD8B004D0838083928394ED
:100FE00012001F5004E1280E1E5CD8A0120083805E
:100FF0008382838412000600F3CF18F0F4CF19F037
:10100000F6CF1AF0F7CF1BF0F8CF1CF0F5CF1DF09C
:10101000F2A40AD0F29483B802D0838801D08398D6
:101020000B0ED76EDC0ED66E9EAA4AD03504361053
:10103000D8B42DD045D0000E0B6E000E0A6E000EF7
:101040000D6E000E0C6E5AEC05F02FD0000E0B6EDC
:10105000000E0A6E000E0D6E010E0C6E5AEC05F0BD
:1010600024D0000E0B6E010E0A6E000E0D6E000EE7
:101070000C6E5AEC05F019D0000E0B6E010E0A6EC4
:10108000000E0D6E010E0C6E5AEC05F00ED04AECFF
:101090000CF0430AD8B4CFD7050AD8B4EDD70D0A5F
:1010A000D8B4D4D7190AD8B4DCD70B0E176E260ED5
:1010B000166E5E0EE82EFED7162EFCD7172EFAD728
:1010C0001DC0F5FF1CC0F8FF1BC0F7FF1AC0F6FFDC
:1010D00019C0F4FF18C0F3FF3C9211008C9C040E61
:1010E0003B18D8A404D08C500F0B300901D03F0E10
:1010F0008C6E30EC0CF0010E40EC09F0040E3B1845
:10110000D8A404D08C500F0B300901D03F0E8C6E48
:1011100030EC0CF0030E40EC09F0040E3B18D8A4A0
:1011200004D08C500F0B300901D03F0E8C6E30EC88
:101130000CF0040E40EC09F0040E3B18D8A411D0BA
:101140008C500F0B20098C6E30EC0CF0040E40EC30
:1011500009F02F0E6FEC0AF030EC0CF0040E40ECAE
:1011600009F00BEC0CF00F0E6FEC0AF030EC0CF009
:10117000040E40EC09F01200000E236E21AE06D0E2
:10118000206C211ED8B0212A010E236E1FAE06D07E
:101190001E6C1F1ED8B01F2A010E231A000E256ECA
:1011A000000E246E20502110D8B41CD0010E226EE7
:1011B00004D0D89020362136222A21AEFAD7D890F2
:1011C0002436253620501E5C21501F58D8A005D04B
:1011D00020501E5E21501F5A2480D8902132203288
:1011E000222EEDD72350D8B404D0246C251ED8B0BD
:1011F000252A24C01EF025C01FF01200000E066E26
:1012000004AE06D0036C041ED8B0042A010E066E8C
:1012100002AE06D0016C021ED8B0022A010E061AD8
:10122000000E086E000E076E03500410D8B41CD0D8
:10123000010E056E04D0D89003360436052A04AE9C
:10124000FAD7D890073608360350015C045002588C
:10125000D8A005D00350015E0450025A0780D890F0
:1012600004320332052EEDD70650D8B404D0076CF3
:10127000081ED8B0082A07C001F008C002F012000A
:101280001F6E23D0620E1E6E660EE82EFED71E2E37
:10129000FCD71200070E1E6E7D0EE82EFED71E2E06
:1012A000FCD700F0050E1E6E260EE82EFED71E2E71
:1012B000FCD700D01200A60EE82EFED700D01200F8
:1012C000420EE82EFED700D012001F50010AD8B4FB
:1012D000D9D7030AD8B4DED7010AD8B4ECD7070AA5
:1012E000D8A41200EDD7026E23D0620E016E660EF6
:1012F000E82EFED7012EFCD71200070E016E7D0EE0
:10130000E82EFED7012EFCD700F0050E016E260E4A
:10131000E82EFED7012EFCD700D01200A60EE82E34
:10132000FED700D01200420EE82EFED700D01200E9
:101330000250010AD8B4D9D7030AD8B4DED7010ABB
:10134000D8B4ECD7070AD8A41200EDD7000E236E4C
:10135000000E226E20502110D8B41CD0010E246E35
:1013600004D0D89020362136242A21AEFAD7D8903E
:101370002236233620501E5C21501F58D8A005D09D
:1013800020501E5E21501F5A2280D89021322032D8
:10139000242EEDD722C01EF023C01FF01200000E35
:1013A000236E94942F0E226EC00EE82EFED7222EAE
:1013B000FCD7948482B4FED71A0EE82EFED700D054
:1013C00082A4232A350EE82EFED700F082B4232A09
:1013D00082B4FED7C2EC0BF0396EC2EC0BF0C2EC5B
:1013E0000BF03A6EC2EC0BF0C2EC0BF0386E120050
:1013F000000E066E000E056E03500410D8B41CD00B
:10140000010E076E04D0D89003360436072A04AEC6
:10141000FAD7D890053606360350015C04500258BE
:10142000D8A005D00350015E0450025A0580D89020
:1014300004320332072EEDD705C001F006C002F0DA
:101440001200000E266E000E256E23502524246EF9
:1014500024C0F6FF080EF76E0800F5500009D8B456
:10146000120023502524246E24C0F6FF080EF76EC8
:101470000800F550DFEC0BF0254A262A26BEE5D7FA
:10148000265005E1100E255CD8B01200DED7120000
:10149000000E096E000E086E06500824076E07C085
:1014A000F6FF080EF76E0800F5500009D8B41200D8
:1014B00006500824076E07C0F6FF080EF76E0800F6
:1014C000F550F5EC0BF0084A092A09BEE5D709509A
:1014D00005E1100E085CD8B01200DED71200216EB4
:1014E000040E3B18D8A417D021C020F0F00E20160F
:1014F0008C500F0B20108C6E30EC0CF0010E40EC79
:1015000009F021C020F0203AF00E20168C500F0B6D
:1015100020108C6E1200080E3B18D8A4120021C0B7
:101520008CFF1200046E040E3B18D8A417D004C020
:1015300003F0F00E03168C500F0B03108C6E37EC7B
:101540000CF0010E73EC09F004C003F0033AF00E46
:1015500003168C500F0B03108C6E1200080E3B18F4
:10156000D8A4120004C08CFF120020502110D8B45F
:1015700018D0010E226E04D0D89020362136222AAF
:1015800021AEFAD720501E5C21501F58D8A004D09D
:1015900020501E5E21501F5AD89021322032222E18
:1015A000F1D71EC01EF01FC01FF012000350041020
:1015B000D8B418D0010E056E04D0D8900336043686
:1015C000052A04AEFAD70350015C04500258D8A093
:1015D00004D00350015E0450025AD8900432033202
:1015E000052EF1D701C001F002C002F012001F6EFB
:1015F000000E216E1E50D8B415D0010E206E03D0FF
:10160000D8901E36202A1EAEFBD7D89021361E5009
:101610001F5CD8A003D01E501F5E2180D8901E32C0
:10162000202EF3D721501200026E000E046E0150DE
:10163000D8B415D0010E036E03D0D8900136032A1A
:1016400001AEFBD7D89004360150025CD8A003D07D
:101650000150025E0480D8900132032EF3D704506B
:101660001200000E1E6E82A4FED7080EE82EFED7D2
:1016700000D082A402D0000E1E6E0E0EE82EFED701
:1016800000D082A404D0010E1E6E82B4FED71E507C
:1016900012009C0EF66E180EF76E000EF86E090022
:1016A000F5CF3BF03A6A396A386A376A366A356A82
:1016B0003C903C92000EF86E0001A2EF06F01F6E07
:1016C000080E206E000E216ED8901F342134216E3A
:1016D000D8901F361E50215CD8A002D01E50215E2B
:1016E000202EF2D721501200026E080E036E000E5B
:1016F000046ED89002340434046ED890023601503F
:10170000045CD8A002D00150045E032EF2D704502E
:1017100012001E502002F3CF22F0F4CF23F01E500F
:101720002102F35023261F502002F350232622C00B
:101730001EF023C01FF012001EC0A9FF20C0A8FF8A
:10174000A69EA69CA684F29E550EA76EAA0EA76E14
:10175000A682F28EA1A8FED7A198A69412000150ED
:101760000302F3CF05F0F4CF06F001500402F3506A
:10177000062602500302F350062605C001F006C0FB
:1017800002F01200000E206E080E216E31EC0BF0FC
:101790001F6E205020241F10206E21062150D8A437
:1017A000F5D7205012001E6E040E1E18D8B404D0B7
:1017B000080E1E18D8A412001EC03BF01200226EA4
:1017C0008C8C22506FEC0AF030EC0CF0040E40ECE4
:1017D00009F01200226E8C9C22506FEC0AF030EC63
:1017E0000CF0040E40EC09F01200056E8C8C0550D4
:1017F00092EC0AF037EC0CF0040E73EC09F01200D6
:10180000056E8C9C055092EC0AF037EC0CF0040E3F
:1018100073EC09F012008C9C010E6FEC0AF030ECB6
:101820000CF0020E40EC09F012001E6E1E44E84659
:10183000FC0B0109C26EC282C2A21200FDD78C9CB1
:10184000010E92EC0AF037EC0CF0020E73EC09F08A
:1018500012001EC0A9FFA69EA69CA680A85012003A
:101860008C8E420EE82EFED700D08C9E12008C8EFD
:10187000420EE82EFED700D08C9E12001E6EACA247
:10188000FED71EC0ADFF1200016EACA2FED701C094
:0D189000ADFF12009EAAFED7AE5012000858
:020000040020DA
:08000000FFFFFFFFFFFFFFFF00
:020000040030CA
:0E00000000091F1EFF8185FF0FC00FE00F409B
:00000001FF
