:0400000007EF00F016
:0A0008002182C7ED06F05BEF08F05F
:1008000000556C74696D612074656D703A00496EB5
:10081000696369616E646F0054656D703A00487574
:100820006D3A00000BC003F00CC004F0000E066E21
:100830000A0E056E9AEC08F00D500324116E0E504E
:100840000420126E1FC015F0166A000E146E430EBF
:10085000136EE7EC08F03ED01FC015F0166A000ECC
:10086000146E430E35D0110E1F24156E166A010E3C
:100870001622000E146E4B0E2BD01F50090DF3CF15
:1008800003F0F4CF04F0000E066E050E056E0CECBE
:1008900007F0EC0E0324156E010E0420166E000EF8
:1008A000146E520E15D01F50090DF3CF03F0F4CF84
:1008B00004F0000E066E050E056E0CEC07F0200E1F
:1008C0000324156E000E0420166E000E146E460EE4
:1008D000136E15D011C00FF012C010F01050000AA6
:1008E000D8A40DD00F50000AD8B4B6D7010AD8B496
:1008F000BAD70B0AD8B4C1D7010AD8B4D4D7540E8A
:1009000009EC09F0650E09EC09F06D0E09EC09F02F
:10091000700E09EC09F03A0E09EC09F0200E09EC12
:1009200009F0180E076E09EC08F015C003F016C0A8
:1009300004F0000E066E640E056E81EC07F00350A5
:100940000410D8B42AD015C003F016C004F0000E6D
:10095000066E640E056E81EC07F00350300F09EC53
:1009600009F015C003F016C004F0000E066E640E08
:10097000056E81EC07F00350300FD1EC08F015C084
:1009800003F016C004F0000E066E640E056EAAECAD
:1009900007F003C015F004C016F015C003F016C030
:1009A00004F0000E066E0A0E056E81EC07F003508F
:1009B000300F09EC09F015C003F016C004F0000E6A
:1009C000066E0A0E056EAAEC07F00350300F09EC14
:1009D00009F0A70E09EC09F0135009EC09F0200EFC
:1009E00009EC09F00A0E09EC09F0480E09EC09F0CF
:1009F000750E09EC09F06D0E09EC09F03A0E09ECE0
:100A000009F0200E09EC09F00A0E036E1E50ECEC02
:100A100007F0300F09EC09F00A0E036E1E5071EC5E
:100A200008F0300F09EC09F0200E09EC09F0250E52
:100A300009EC09F00A0E09EC09F0200E09EC09F0A6
:100A400015C003F016C004F0000E066E0A0E056E07
:100A500081EC07F00350300FD1EC08F015C003F023
:100A600016C004F0000E066E0A0E056EAAEC07F022
:100A70000350300FD1EC08F01350D1EC08F0C00E49
:100A8000DCEC08F01E0E076E09EC08F00A0E036E8F
:100A90001E50ECEC07F0300FD1EC08F00A0E036E9C
:100AA0001E5071EC08F0300FD1EC08F0250ED1EC9F
:100AB00008F01200760ED36E030E176E980EE82E15
:100AC000FED7172EFCD78B94200EAC6E900EAB6E1B
:100AD000000EB86E000E966E0C0EAF6E010EC26E5A
:100AE0000D0EC16E880EC06E000E936E000E956ED8
:100AF000010E926ED70E946E6D966F86000E046E88
:100B0000000E036EFBEC08F01D6ECBEC07F0030E3D
:100B1000D56EF2940B0ED76EDC0ED66EF28AF28E84
:100B2000D58EE7EC08F01D28D8B428D0010E076E4A
:100B300009EC08F0C00EDCEC08F00A0E036E1D5044
:100B4000ECEC07F0300FD1EC08F00A0E036E1D50EC
:100B500071EC08F0300FD1EC08F0430ED1EC08F046
:100B6000150E186E4B0E176EBE0EE82EFED7172E02
:100B7000FCD7182EFAD700D0E7EC08F00E0E076E5F
:100B800009EC08F0060E186E130E176EAE0EE82E66
:100B9000FED7172EFCD7182EFAD72E0ED1EC08F060
:100BA000060E186E130E176EAE0EE82EFED7172E19
:100BB000FCD7182EFAD72E0ED1EC08F0060E186EC0
:100BC000130E176EAE0EE82EFED7172EFCD7182E7A
:100BD000FAD72E0ED1EC08F0060E186E130E176E13
:100BE000AE0EE82EFED7172EFCD7182EFAD7E7EC5C
:100BF00008F0060E186E130E176EAE0EE82EFED716
:100C0000172EFCD7182EFAD7060E186E130E176E75
:100C1000AE0EE82EFED7172EFCD7182EFAD7060EEA
:100C2000186E130E176EAE0EE82EFED7172EFCD7D9
:100C3000182EFAD726EC08F0000E046E000E036E94
:100C40001FC005F0ADEC08F01FC003F0046A53ECC0
:100C500006F082B811D082A002D0010E01D0000EA1
:100C60000B6E0C6A82A202D0010E01D0000E0D6E36
:100C70000E6A12EC04F00AD01BC00BF01CC00CF082
:100C800019C00DF01AC00EF012EC04F0000EF1ECD9
:100C900008F0000EC35C020EC458D8A002D08386B0
:100CA000B3D78396B1D7045008E1160E035CD8B0D1
:100CB00004D08190819281941200045004E1160EB8
:100CC000035CD8A00AD0045008E1190E035CD8B028
:100CD00004D08180819281841200045004E1190EB5
:100CE000035CD8A00AD0045008E11C0E035CD8B005
:100CF00004D08190819281841200045004E11C0E82
:100D0000035CD8A00AD0045008E11F0E035CD8B0E1
:100D100004D08190818281841200045004E11F0E6E
:100D2000035CD8A00AD0045008E1220E035CD8B0BE
:100D300004D08190818281941200045004E1220E3B
:100D4000035CD8A00AD0045008E1250E035CD8B09B
:100D500004D08180818281941200045004E1250E28
:100D6000035CD8A00AD0045008E1280E035CD8B078
:100D700004D08180819281941200045004E1280EF5
:100D8000035CD8A012008180818281841200060059
:100D9000F2A40AD0F29484B002D0848001D084906E
:100DA0000B0ED76EDC0ED66E9EBA1AD033D0000E64
:100DB0001C6E000E1B6E000E1A6E000E0FD0000E81
:100DC0001C6E000E07D0000E1C6E010EF3D7000E35
:100DD0001C6E010E1B6E000E1A6E010E196E0ED0E7
:100DE00013EC09F0430AD8B4E2D7050AD8B4EFD718
:100DF0000D0AD8B4E4D7190AD8B4E5D7020E026EAA
:100E0000040E016EBA0EE82EFED7012EFCD7022E7C
:100E1000FAD700D021921100000E086E06AE06D05F
:100E2000056C061ED8B0062A010E086E04AE06D068
:100E3000036C041ED8B0042A010E081A000E0A6EB4
:100E4000000E096E05500610D8B41CD0010E076EB6
:100E500004D0D89005360636072A06AEFAD7D890C1
:100E600009360A360550035C06500458D8A005D050
:100E70000550035E0650045A0980D89006320532A8
:100E8000072EEDD70850D8B404D0096C0A1ED8B08C
:100E90000A2A09C003F00AC004F01200046E23D02D
:100EA000620E036E660EE82EFED7032EFCD71200EC
:100EB000070E036E7D0EE82EFED7032EFCD700F042
:100EC000050E036E260EE82EFED7032EFCD700D0AB
:100ED0001200A60EE82EFED700D01200420EE82E19
:100EE000FED700D012000450010AD8B4D9D7030AA3
:100EF000D8B4DED7010AD8B4ECD7070AD8A41200B8
:100F0000EDD7000E086E000E076E05500610D8B41F
:100F10001CD0010E096E04D0D89005360636092A79
:100F200006AEFAD7D890073608360550035C06504F
:100F30000458D8A005D00550035E0650045A078017
:100F4000D89006320532092EEDD707C003F008C04D
:100F500004F0120005500610D8B418D0010E076E28
:100F600004D0D89005360636072A06AEFAD70550C3
:100F7000035C06500458D8A004D00550035E065008
:100F8000045AD89006320532072EF1D703C003F079
:100F900004C004F012008D923F0E8C6E02EC09F03A
:100FA000010E4EEC07F03F0E8C6E02EC09F0030EC2
:100FB0004EEC07F03F0E8C6E02EC09F0040E4EEC86
:100FC00007F0E7EC08F00F0E0FEC09F002EC09F067
:100FD000040E4EEC07F01200046E000E066E035075
:100FE000D8B415D0010E056E03D0D8900336052A6B
:100FF00003AEFBD7D89006360350045CD8A003D0CC
:101000000350045E0680D8900332052EF3D70650B5
:101010001200000E0A6E000E096E0DD00750092452
:10102000086E08C0F6FF080EF76E0800F550D1EC08
:1010300008F0094A0A2A07C003F086EC08F00350BA
:10104000095C04500A58D8B01200E8D794942F0EC7
:10105000076EC00EE82EFED7072EFCD7948482B40C
:10106000FED7500EE82EFED782B4FED7C0EC08F0B3
:101070001E6EC0EC08F0C0EC08F01F6EC0EC08F06B
:10108000C0EC08F01200000E036E82A4FED7080E1A
:10109000E82EFED700D082A402D0000E036E0E0E02
:1010A000E82EFED700D082A404D0010E036E82B4D5
:1010B000FED7035012002E0EF66E120EF76E000EC3
:1010C000F86E0900F5CF20F000EE19F0070EEE6A79
:1010D000E806FDE121902192000EF86E00015AEF22
:1010E00005F0046E080E056E000E066ED8900434EE
:1010F0000634066ED89004360350065CD8A002D0A1
:101100000350065E052EF2D70650120003C005F00C
:1011100001D0052A05C0F6FF080EF76E0800F5504D
:101120000009D8A4F6D70350055C036E046A03BE19
:101130000406120003500502F3CF07F0F4CF08F0C5
:1011400003500602F350082604500502F350082607
:1011500007C003F008C004F0120003C0A9FF05C0D7
:10116000A8FFA69EA69CA684F29E550EA76EAA0E68
:10117000A76EA682F28EA1A8FED7A198A69412000F
:10118000000E056E080E066E43EC08F0046E055066
:1011900005240410056E06060650D8A4F5D70550A0
:1011A0001200066E8D8206500FEC09F002EC09F079
:1011B000040E4EEC07F01200066E8D9206500FECF6
:1011C00009F002EC09F0040E4EEC07F012008D92CB
:1011D000010E0FEC09F002EC09F0020E4EEC07F0E4
:1011E0001200036E0344E846FC0B0109C26EC28282
:1011F000C2A21200FDD703C0A9FFA69EA69CA6808E
:10120000A85012008D84420EE82EFED700D08D9497
:101210001200036EACA2FED703C0ADFF1200056E34
:0F12200005C08CFF12009EAAFED7AE5012000828
:020000040020DA
:08000000FFFFFFFFFFFFFFFF00
:020000040030CA
:0E00000000091F1EFF8185FF0FC00FE00F409B
:00000001FF
